:0300000002057A7C
:0C057A00787FE4F6D8FD75813202026B38
:1004650053797374656D205265736574204F4B0D18
:100475000045726173652073756363657373667593
:100485006C0D0050726F6772616D207375636365E3
:10049500737366756C0D00566572696679207375A0
:1004A500636365737366756C0D00494150206F7009
:0E04B50065726174696F6E206661696C0D007E
:10026B007F807E257D007C001205867590FE7BFFCE
:10027B007A04796512054B7F0A120523E4FFFE12FF
:10028B000537E4F52DF52EAF2EAE2D1204F6EFF457
:10029B00707B052EE52E7002052DC3E52D940240D3
:1002AB00E67590FC7BFF7A04797612054B7F0A1278
:1002BB000523E4F52DF52EAD2EAF2EAE2D12050D2B
:1002CB00052EE52E7002052DC3E52D940240E87531
:1002DB0090F87BFF7A04798812054B7F0A1205236D
:1002EB00E4F52DF52EAF2EAE2D1204F6EFB52E1D27
:1002FB00052EE52E7002052DC3E52D940240E67503
:10030B0090F07BFF7A04799C12054B80FE53907F13
:0B031B007BFF7A0479AF12054B80FED7
:10052300AE071FEE600DE4FCFD0DED70010C4C6099
:03053300EF80F660
:0105360022A2
:0D056D00E4F5C7F5C5F5C675C380F5C422D9
:1004F60075C78175C5018FC48EC375C65A75C6A5E5
:0605060000AFC212056DFA
:01050C0022CC
:10050D0075C78175C5028FC48EC38DC275C65A75E8
:06051D00C6A50002056DF9
:1005370075C78175C5038FC48EC375C65A75C6A5A1
:040547000002056D3C
:0B058600438920759850D28E0204C3F8
:0804C3008F328E318D308C2F39
:1004CB00E47F807E01FDFCAB32AA31A930A82F124C
:1004DB000049A804A905AA06AB077F007E807D51C1
:0A04EB007C011200D41201668F8D0F
:0104F50022E4
:080591008F993099FDC29922F7
:0E055E0030980BAF99C2988F993099FDC299D1
:01056C00226C
:10054B00120003FF600C120591740129F9E43AFAC9
:03055B0080EE220D
:080326008F0B8E0A8D098C0873
:10032E00E4F516751709FFFEFDFCAB0BAA0AA90929
:10033E00A808C3120174700CAF171517740C2FF8A0
:10034E0076308053E4FFFEFDFCAB0BAA0AA909A888
:10035E0008D31201744040E5179400403AE47B0A3A
:10036E00FAF9F8AF0BAE0AAD09AC081200D4EB24C3
:10037E0030FFAE171517740C2EF8A607AF0BAE0A8A
:10038E00AD09AC08E47B0AFAF9F81200D48F0B8E93
:0E039E000A8D098C0880ADE517C3940040233A
:1003AC00E4F518C3740A9517FFE518C39F5014E5BC
:1003BC00172518240DF8E6FF740C2518F8A6070568
:0303CC001880E0B6
:0903CF007B007A00790C02054B59
:0803D8008F1C8E1B8D1A8C197D
:1003E000E4F5227B03FAE51D75F002A4FFEAC39F42
:1003F000E5F06480F8748098503BEBC3940040357E
:10040000AF1CAE1BAD1AAC19EA25E025E0F9F812D5
:100410000185EF540FFF8F23E523C3940AE5235092
:10042000052430FF80032437FFAE031B741E2EF813
:02043000A6071D
:090432000A80B1EBC394004021E3
:10043B00E4F523C374049BFFE523C39F5013E5230B
:10044B002B241FF8E6FF741E2523F8A6070523802F
:01045B00E2BE
:09045C007B007A00791E02054BB9
:0A0198008B248A2589268C278D28E8
:1001A200E4F52AF52B752C02AB240526E526AA25B3
:1001B2007002052514F9120003F529700302026A80
:1001C200642560030202620526E526AA257002055F
:1001D2002514F9120003F529B4641285272A85280B
:1001E2002BAE2AAF2BE4FCFD12032680BBE529646B
:1001F200787066AB24AA25A926120003FFC3648087
:1002020094B14045D3EF648094B9503DEF24D0F5CA
:100212002CAB24AA25A92690000112001CFFC3645E
:100222008094B04024D3EF648094B9501C0526E535
:100232002670020525F9AA2512000324D0FFE52C19
:1002420075F00AA42FF52C80C8AE27AF28E4FCFD78
:10025200852C1D1203D80201AA7F25120591800068
:08026200AF291205910201AA67
:01026A002271
:10000300BB010689828A83E0225002E722BBFE02FB
:09001300E32289828A83E493222E
:10001C00BB010CE58229F582E5833AF583E0225099
:10002C0006E92582F8E622BBFE06E92582F8E222E3
:0D003C00E58229F582E5833AF583E49322FD
:10004900E88FF0A4CC8BF0A42CFCE98EF0A42CFC56
:100059008AF0EDA42CFCEA8EF0A4CDA8F08BF0A4D4
:100069002DCC3825F0FDE98FF0A42CCD35F0FCEB33
:100079008EF0A4FEA9F0EB8FF0A4CFC5F02ECD39F8
:0F008900FEE43CFCEAA42DCE35F0FDE43CFC2265
:1000980075F008758200EF2FFFEE33FECD33CDCC1F
:1000A80033CCC58233C5829BED9AEC99E5829840A2
:1000B8000CF582EE9BFEED9AFDEC99FC0FD5F0D67F
:1000C800E4CEFBE4CDFAE4CCF9A88222B800C1B9A9
:1000D8000059BA002DEC8BF084CFCECDFCE5F0CBE7
:1000E800F97818EF2FFFEE33FEED33FDEC33FCEB20
:1000F80033FB10D703994004EB99FB0FD8E5E4F9DB
:10010800FA227818EF2FFFEE33FEED33FDEC33FCC7
:10011800C933C910D7059BE99A4007EC9BFCE99ABB
:10012800F90FD8E0E4C9FAE4CCFB2275F010EF2F00
:10013800FFEE33FEED33FDCC33CCC833C810D70700
:100148009BEC9AE899400AED9BFDEC9AFCE899F83B
:0E0158000FD5F0DAE4CDFBE4CCFAE4C8F922CE
:0E016600C3E49FFFE49EFEE49DFDE49CFC22AA
:10017400EB9FF5F0EA9E42F0E99D42F0E89C45F0E1
:010184002258
:10018500E8600FECC313FCED13FDEE13FEEF13FF58
:03019500D8F1227C
:00000001FF
